:020000040800F2
:10000000D00D00200918000891040008930400088E
:10001000970400089B0400089F04000800000000EB
:10002000000000000000000000000000A304000821
:10003000A504000800000000A7040008A9040008A7
:1000400023180008231800082318000823180008A4
:100050002318000823180008231800082318000894
:100060002318000823180008231800082318000884
:100070002318000823180008BF04000823180008EC
:100080002318000823180008231800082318000864
:100090002318000823180008231800082318000854
:1000A0002318000823180008231800082318000844
:1000B0002318000823180008231800082318000834
:1000C0002318000823180008231800082318000824
:1000D0002318000805190008231800082318000831
:1000E0002318000823180008231800082318000804
:1000F00023180008231800082318000823180008F4
:1001000023180008231800082318000823180008E3
:1001100023180008231800082318000823180008D3
:1001200023180008231800082318000823180008C3
:1001300000F002F800F03AF80AA090E8000C8244BF
:100140008344AAF10107DA4501D100F02FF8AFF29C
:10015000090EBAE80F0013F0010F18BFFB1A43F0A5
:100160000103184784270000A4270000103A24BF89
:1001700078C878C1FAD8520724BF30C830C144BF0C
:1001800004680C607047000000230024002500264E
:10019000103A28BF78C1FBD8520728BF30C148BFEA
:1001A0000B6070471FB51FBD10B510BD02F069F997
:1001B0001146FFF7F7FF00F0E7F802F087F903B404
:1001C000FFF7F2FF03BC01F03FFB0000002100E05D
:1001D000491C8142FCD3704700B58BB0A24800F0A7
:1001E000DFFAA2480090A248019010200290182047
:1001F0000390002004908020059000200690079036
:1002000008904FF40050099000200A9069469648E3
:1002100000F068FB01220221934800F09AFB0BB02A
:1002200000BD1FB54FF4E13000900020ADF8040090
:10023000ADF80600ADF80800ADF80C000820ADF8E8
:100240000A0069468948001F01F01DF9012280213A
:100250008648001F01F0D4F901218448001F01F0F5
:100260009EF91FBD08B54FF4806000F02BFA0E20F8
:100270008DF8000002208DF8010001208DF80200A9
:100280008DF80300684600F022FA08BD08B5082082
:10029000ADF8000003208DF8020010208DF8030057
:1002A0006946744800F006FC0121202000F0BEFEE3
:1002B0004FF40050ADF8000003208DF8020010202C
:1002C0008DF8030069466C4800F0F4FB4FF40070B1
:1002D000ADF8000018208DF803006946654800F06D
:1002E000E9FB4FF48060ADF8000004208DF80300B6
:1002F0006946604800F0DEFB08BD10B500F028FD3F
:100300004FF4803000F044FD00F081FD044600BF52
:10031000002CFDD0002000F0C0FD002000F0C6FD44
:10032000002000F0CCFD4FF4E0114FF4803000F0DD
:1003300097FD012000F0A0FD00BF392000F04BFD2B
:100340000028FAD0022000F09AFD00BF00F0A0FDC6
:100350000828FBD1002000F080FD0121042000F0DE
:1003600065FE01214FF0C05000F06DFE012145F205
:10037000240000F05BFE0121084600F04AFE012146
:10038000880300F053FE10BDFFF7B7FFFFF77EFFB5
:10039000FFF768FF3949B1F1807F00D31DE021F0FC
:1003A0007F40401E4FF0E022506150170F2200287E
:1003B00007DA13071D0E324B00F00F04241F1D55E2
:1003C00003E013071C0E2F4B1C5400BF00204FF0FE
:1003D000E02290610720106100BF6FF0040000F080
:1003E000C0F901F080FBFFF71CFFFFF7F5FE1AE0F4
:1003F000254800680721B0FBF1F201FB120068B943
:100400004FF400511C4800F002FC02F009F8184AB1
:100410001E480178002001F064FC04E04FF4005114
:10042000154800F0F6FBE3E738B5044600949DF864
:1004300001100E48001F01F01FF900BF80210B487A
:10044000001F01F087F90028F8D09DF80010074838
:10045000001F01F011F900BF80210448001F01F0C6
:1004600079F90028F8D038BD440002400438014032
:10047000A8000020000801400014014040548900F9
:1004800018ED00E000E400E0600000200000002023
:10049000704700BFFEE700BFFEE700BFFEE700BFFA
:1004A000FEE770477047704710B50C480068401C65
:1004B0000A49086001210A4800F03FFA10BD10B552
:1004C0004FF4005000F068FA0021054800F035FABA
:1004D0001821034800F046FA10BD0000600000201B
:1004E000440002400CB50020019000906C48006868
:1004F00040F480306A49086000BF6948006800F431
:10050000003000900198401C0190009818B90198A3
:10051000B0F5A06FF1D16248006800F4003010B16E
:100520000120009001E0002000900098012843D1B4
:100530005C48006840F010005A49086008460068AE
:1005400020F0030008600846006840F002000860E0
:100550005348406852494860084640684860084629
:10056000406840F4806048600846406820F47C1091
:1005700048600846406840F4E81048600846006853
:1005800040F08070086000BF4548006800F00070CF
:100590000028F9D04248406820F0030040494860F4
:1005A0000846406840F00200486000BF3C48406890
:1005B00000F00C000828F9D10CBD10B5FFF792FF30
:1005C00010BD10B53648006840F00100344908609D
:1005D0000846406834490840314948600846006888
:1005E000324908402E4908600846006820F48020FF
:1005F00008600846406820F4FE0048604FF41F0081
:100600008860FFF7DAFF4FF000602949086010BDED
:1006100010B5002100200022214B5B6803F00C0183
:1006200021B1042906D0082928D107E0214B224C0A
:10063000236027E01F4B204C236023E0184B5B68AE
:1006400003F47010164B5B6803F48032022303EB53
:10065000904022B9194B4343174C23600DE0104BD7
:100660005B6803F4003323B1144B4343124C236003
:1006700003E0104B4343104C236003E00D4B0E4C42
:10068000236000BF00BF064B5B68C3F303130C4C31
:10069000E15C094B1B68CB40074C236010BD000098
:1006A00000100240002002400000FFF8FFFFF6FEAD
:1006B00008ED00E000127A006400002000093D000F
:1006C0006800002031490143314A1160704770B51C
:1006D000002100230F22C47804B32D4C246804F4B5
:1006E000E064C4F5E064210AC1F10403CA4044781F
:1006F00004FA03F18478144021430901254C06785B
:10070000A155047804F01F050124AC4005786D1153
:10071000AD0005F1E025C5F8004109E0047804F0DA
:100720001F050124AC401C4D0678761145F8264083
:1007300070BD1A4A0A400243154B1B1F1A607047CE
:1007400039B1134A121D12680243114B1B1D1A6066
:1007500006E00F4A121D126882430D4B1B1D1A60E2
:100760007047042808D14FF0E021096941F00401E5
:100770004FF0E022116107E04FF0E021096921F01C
:1007800004014FF0E0221161704700000000FA05FB
:100790000CED00E000E400E080E100E080FFFF1FDE
:1007A00001684FF6FE721140016000210160416056
:1007B0008160C1608D49884208D18C4908394968F7
:1007C00041F00F01894A083A51608AE087491431A3
:1007D000884208D185490839496841F0F001834AC7
:1007E000083A51607DE081492831884208D17F492B
:1007F0000839496841F470617C4A083A516070E0F8
:100800007A493C31884208D178490839496841F42D
:100810007041764A083A516063E074495031884229
:1008200008D172490839496841F470216F4A083A81
:10083000516056E06D496431884208D16B490839EE
:10084000496841F47001694A083A516049E06749D2
:100850007831884208D165490839496841F07061AA
:10086000624A083A51603CE06149884206D1011F62
:10087000096841F00F01021F116032E05C49143138
:10088000884208D15A49091F096841F0F001584AC5
:10089000121F116025E056492831884208D1544979
:1008A000091F096841F47061514A121F116018E074
:1008B0004F493C31884208D14D49091F096841F42C
:1008C00070414B4A121F11600BE049495031884278
:1008D00007D14749091F096841F47021444A121F92
:1008E0001160704710B50022026847F6F0739A4312
:1008F0000C6A8B6823430C6923434C6923438C693E
:100900002343CC6923434C6A23438C6A23431A4311
:100910000260CB6843600B6883604B68C36010BDA6
:100920000021016041608160C160016141618161BC
:10093000C161016241628162704721B1026842F087
:100940000102026004E002684FF6FE731A40026082
:1009500070471AB103680B43036002E003688B43DE
:1009600003607047416070470146486880B2704735
:1009700001460020002201F080531BB11C4B083BB4
:100980001A6802E0194B083B1A6802EA01030BB12E
:10099000012000E00020704700F0805119B1144997
:1009A000091F086002E01149083948607047014694
:1009B0000020002201F080531BB10D4B083B1A6848
:1009C00002E00A4B083B1A6802EA01030BB101205E
:1009D00000E00020704700F0805119B10449091F60
:1009E000086002E001490839486070470800024089
:1009F0000804024010B50446CC48844208D10121C5
:100A0000042000F02DFB0021042000F029FB46E02B
:100A1000C748844208D10121082000F021FB0021B1
:100A2000082000F01DFB3AE0C248844208D10121B1
:100A3000102000F015FB0021102000F011FB2EE02B
:100A4000BD48844208D10121202000F009FB00218B
:100A5000202000F005FB22E0B848844208D10121A3
:100A6000402000F0FDFA0021402000F0F9FA16E0E5
:100A7000B348844208D10121802000F0F1FA00211E
:100A8000802000F0EDFA0AE0AE48844207D101214F
:100A9000801500F0E5FA0021A01500F0E1FA10BD84
:100AA00010B50121084600F0DBFA0021012000F01A
:100AB000D7FA10BD2DE9F04102460025002600209E
:100AC00000230024002791F803C00CF00F0591F8D3
:100AD00003C00CF0100CBCF1000F03D091F802C061
:100AE0004CEA050591F800C0BCF1000F31D0146844
:100AF00000202BE04FF0010C0CFA00F3B1F800C01D
:100B00000CEA03069E4220D183004FF00F0C0CFA32
:100B100003F7BC4305FA03FC4CEA040491F803C054
:100B2000BCF1280F06D14FF0010C0CFA00FCC2F802
:100B300014C00AE091F803C0BCF1480F05D14FF092
:100B4000010C0CFA00FCC2F810C0401C0828D1D3DC
:100B50001460B1F800C0BCF1FF0F34DD5468002010
:100B60002EE000F1080C4FF0010808FA0CF3B1F880
:100B700000C00CEA03069E4221D183004FF00F0C07
:100B80000CFA03F7BC4305FA03FC4CEA040491F8A1
:100B900003C0BCF1280F05D100F1080C08FA0CF8CD
:100BA000C2F8148091F803C0BCF1480F07D100F1DE
:100BB000080C4FF0010808FA0CF8C2F81080401C2D
:100BC0000828CED35460BDE8F0814FF6FF71018054
:100BD000022181700421C170704702460020936891
:100BE0000B400BB1012000E00020704701468868EF
:100BF00080B2704702460020D3680B400BB1012041
:100C000000E0002070470146C86880B2704701616B
:100C10007047416170470AB1016100E0416170476E
:100C2000C16070474FF480320A4382618161826102
:100C300082698269704702460020434B18684FF66C
:100C40008073184040EA021008433F4B1860704719
:100C50003E49C8617047F0B50A46002300240021D0
:100C6000002500F00046B6F1004F02D1364EF16982
:100C700001E0354E7168C0F3034583B200F44016BD
:100C8000B6F5401F08D121F070612F4E766826F02E
:100C900070662D4F7E6012E000F48016B6F5801F5E
:100CA00006D1032606FA05F4A14341F0706106E07F
:100CB000460D360103FA06F6B14341F0706122B1E8
:100CC000460D360103FA06F6314300F00046B6F150
:100CD000004F02D11C4EF16101E01B4E7160F0BD6E
:100CE00030B500228B071C0F0F2303FA04F2164BBA
:100CF00008338C1053F824309343134C08348D1070
:100D000044F8253023468C1053F824308C07240FE8
:100D100000FA04F423430C4C08348D1044F82530B9
:100D200030BD0A49DC31086070470000000801400E
:100D3000000C014000100140001401400018014067
:100D4000001C014000200140000001400000204242
:100D5000DF48006840F00100DD490860084640684F
:100D6000DC490840DA49486008460068DA4908402A
:100D7000D74908600846006820F4802008600846CB
:100D8000406820F4FE0048604FF41F008860704700
:100D9000CF49096821F48031CD4A116011460968B4
:100DA00021F480211160B0F5803F03D0B0F5802F91
:100DB0000ED106E0C649096841F48031C44A116089
:100DC00007E0C349096841F4A021C14A116000E06D
:100DD00000BF00BF704710B501460022002300206D
:100DE0004A11012A02D1BA4C236806E0022A02D134
:100DF000B74C236A01E0B64C636A01F01F0201247C
:100E000094401C400CB1012000E0002010BD38B51A
:100E1000002000900024002500BF3120FFF7DBFFF9
:100E200005460098401C00900098B0F5A06F01D0D6
:100E3000002DF2D03120FFF7CEFF08B1012400E0F1
:100E40000024204638BD01460020A14A106820F049
:100E5000F80040EAC10010607047A0490860704780
:100E6000024600209A4B586820F47C1042EA0103A5
:100E70001843974B58607047984908667047014679
:100E80000020934A506820F00300084350607047E8
:100E90008F48406800F00C007047014600208C4AE3
:100EA000506820F0F0000843506070470146002071
:100EB000874A506820F4E06008435060704701465C
:100EC0000020834A506820F4605040EAC10050601E
:100ED000704729B17E4A527A02437D4B5A7204E030
:100EE0007B4A527A82437A4B5A7270477B49D83197
:100EF0000860704701460020754A506820F4404061
:100F00000843506070470021714A20321170704AC6
:100F100082F82010012802D004280AD104E001211F
:100F20006B4A2032117005E00521694A20321170A8
:100F300000E000BF00BF704769490860704764491E
:100F4000096A0143624A1162704765494439086081
:100F5000704730B500210022002400235C4D6D68ED
:100F600005F00C0121B1042905D0082923D105E0A1
:100F70005C4D056022E05B4D05601FE0544D6D68DF
:100F800005F47012524D6D6805F48034022505EBAE
:100F900092421CB9544D554305600BE04C4D6D68B1
:100FA00005F400351DB1504D5543056002E04D4D2F
:100FB0005543056002E04B4D056000BF00BF444D46
:100FC0006D6805F0F0010909484D6B5C0568DD406E
:100FD00045603F4D6D6805F4E061090A434D6B5C67
:100FE0004568DD4085603A4D6D6805F46051C90A79
:100FF0003E4D6B5C4568DD40C560354D6D6805F460
:101000004041890B3A4D6B5CC568B5FBF3F5056152
:1010100030BD29B12E4A526902432D4B5A6104E07A
:101020002B4A526982432A4B5A61704729B1284A98
:1010300092690243264B9A6104E0254A92698243F1
:10104000234B9A61704729B1214AD2690243204B50
:10105000DA6104E01E4AD26982431D4BDA617047AF
:1010600029B11B4AD2680243194BDA6004E0184ADE
:10107000D2688243164BDA60704729B1144A12696C
:101080000243134B1A6104E0114A12698243104B68
:101090001A61704712494039086070470F49C864A7
:1010A00070470B49C87170470948406A40F080702A
:1010B00007494862704701460020054A92680A4085
:1010C0000AB1012000E00020704701498872704792
:1010D000001002400000FFF8FFFFF6FE0000424251
:1010E0008004424200127A0000093D00780000208E
:1010F0008800002010B50446BE48844208D1012172
:101100008014FFF7ADFF0021A014FFF7A9FF16E040
:10111000B948844208D101210014FFF7AEFF002135
:101120002014FFF7AAFF0AE0B448844207D1012146
:10113000C013FFF7A2FF0021E013FFF79EFF10BDD1
:1011400010B50022028802F441520B884C882343D8
:101150008C882343CC8823430C8923434C89234325
:101160008C892343CC8923431A430280838B4FF21B
:10117000FF74234083830B8A038210BD2DE9F04F57
:1011800085B005460C464FF0000902274FF00008D5
:101190004FF0010B0026B246A88B4FF240010840E9
:1011A000A88302202884B5F81C90A068022801D1E9
:1011B00000BF38E0A08810B94FF0010B01E04FF0FC
:1011C000020B8D48854200D100E000BF6846FFF762
:1011D000C0FEDDF800A0E088B0F5007F0AD14FEA3C
:1011E0001A2000EB80004000A168B0FBF1F0401D28
:1011F00086B20BE04FEA4B10BAFBF0F000EB800038
:101200004000A168B0FBF1F0401D86B20A20B6FB99
:10121000F0F606F00108A6EB0800C0F34F074FF602
:10122000FF7000EA0828022F01DBFF2F02DD0227F2
:101230004FF00008E08840EA080038432884A0887E
:10124000A1890843618808432188084340F400606D
:1012500040EA0909A5F81C9005B0BDE8F08F00210F
:10126000018041808180C180018141818181C18172
:101270000721018270470021018041808180C18067
:101280000221816000218181704721B1028842F0F2
:101290004002028004E002884FF6BF731A400280C9
:1012A000704721B1828B42F48062828304E0828B9A
:1012B0004FF6FF331A408283704730B50024002375
:1012C0000C110125A540ABB21AB185881D4385805C
:1012D00002E085889D43858030BD1AB183880B4329
:1012E000838002E083888B438380704781817047CD
:1012F0000146888970474FF6FF62914204D0028808
:1013000042F48072028004E002884FF6FF631A40C4
:101310000280704721B1828842F00402828004E09A
:1013200082884FF6FB731A408280704702884FF222
:10133000FF731A40028002880A43028070470188C6
:1013400041F480510180704721B1028842F400527B
:10135000028004E002884DF6FF731A400280704755
:1013600002460020012901D0108B00E0908A7047CE
:101370000146088A7047B1F5804F04D1028842F4D3
:101380008042028004E002884BF6FF731A4002801C
:1013900070470246002013890B400BB1012000E08A
:1013A00000207047CA4302817047F0B50246002012
:1013B00000240023002501F00F070126BE40B4B22F
:1013C0000B1101269E40B3B2968806EA03051689E2
:1013D000264016B10DB1012000E00020F0BD10B58F
:1013E000002201F00F040123A3409AB2D3430381EA
:1013F00010BD00000030014000380040003C0040BB
:1014000010B50446FB48844209D101218803FFF747
:1014100027FE00214FF48040FFF722FE32E0F6481D
:10142000844209D101214804FFF727FE00214FF42F
:101430000030FFF722FE25E0F048844209D1012167
:101440008804FFF71AFE00214FF48020FFF715FEF5
:1014500018E0EB48844209D10121C804FFF70DFED2
:1014600000214FF40020FFF708FE0BE0E54884421E
:1014700008D101210805FFF700FE00214FF480107C
:10148000FFF7FBFD10BD2DE9F04786B005460E467F
:101490000024A24600BFA1460027B08900B100BFCA
:1014A0002F462C8A4CF6FF700440F08804432C82AF
:1014B000AC894EF6F3100440B08831890843718935
:1014C00008430443AC81AC8A4FF6FF400440B08926
:1014D0000443AC8201A8FFF73CFDC648874202D115
:1014E000DDF810A001E0DDF80CA0A88900F40040B0
:1014F00040B10AEBCA0000EB0A1031684900B0FBAA
:10150000F1F807E00AEBCA0000EB0A103168890025
:10151000B0FBF1F86420B8FBF0F00401200964216D
:1015200001FB1089A88900F4004040B1322000EB93
:10153000C900B0FBF1F000F00700044308E03220DE
:1015400000EB09106421B0FBF1F000F00F00044340
:101550002C8106B0BDE8F0874FF4165101600021E0
:101560008180C18001810C214181002181817047EE
:1015700010B502460020108A4FF2FF0318400B8876
:101580004C8823438C882343CC8823431843108200
:1015900010BD0021018041808180C180704721B150
:1015A000828942F40052828104E082894DF6FF7301
:1015B0001A4082817047F0B50346002400260025BA
:1015C000002040F66A17B94200D100BF1846C1F3A7
:1015D000421401F01F06012707FA06F5012C01D17C
:1015E0000C3004E0022C01D1103000E014301AB1AC
:1015F00007682F43076002E00768AF430760F0BD4C
:101600001AB1838A0B43838202E0838A8B438382ED
:101610007047028A4FF6F0731A400282028A0A4328
:101620000282704782894FF2FF731A408281828959
:101630000A438281704721B1828942F0020282818D
:1016400004E082894FF6FD731A4082817047028A56
:101650004FF6DF731A400282028A0A430282704701
:1016600021B1028A42F48042028204E0028A4BF6EF
:10167000FF731A4002827047C1F3080282807047EC
:1016800001468888C0F308007047818941F0010154
:1016900081817047028BD2B20283028B42EA01221F
:1016A00002837047028B02F47F420283028B0A435B
:1016B0000283704721B1828A42F02002828204E0D4
:1016C000828A4FF6DF731A408282704721B1828A84
:1016D00042F01002828204E0828A4FF6EF731A40D1
:1016E0008282704721B1828A42F00802828204E03D
:1016F000828A4FF6F7731A408282704721B182893D
:1017000042F40042828103E08289C2F30E028281A8
:10171000704721B1828A42F40062828204E0828AA8
:101720004FF2FF731A4082827047828A4FF6FB7332
:101730001A408282828A0A438282704721B1828A59
:1017400042F00202828204E0828A4FF6FD731A4060
:101750008282704702460020B1F5007F00D100BFB1
:1017600013880B400BB1012000E00020704701F40A
:101770000072B2F5007F00D100BFCA4302807047FB
:1017800070B50246002400230025002040F66A16AA
:10179000B14200D100BFC1F3421501F01F03012681
:1017A00006FA03F3012D02D19689334006E0022D9B
:1017B00002D1168A334001E0968A33400C1201268A
:1017C00006FA04F41688344013B10CB1012000E08D
:1017D000002070BD10B50022002340F66A14A1421B
:1017E00000D100BF0A1201249440A3B2DC4304805C
:1017F00010BD000000380140004400400048004097
:10180000004C00400050004009488047094800470C
:10181000FEE7FEE7FEE7FEE7FEE7FEE7FEE7FEE7A0
:10182000FEE7FEE704480549054A064B70470000FD
:10183000C305000831010008D0070020D00D0020AA
:10184000D0090020D0090020014600BF704700BF2A
:101850004B4A128802F04002002AF9D0C2B2484B2B
:101860001B1D1A80704710B586B00446012144F252
:101870000400FFF7DBFB4248FFF7C2FD4FF40070A6
:10188000ADF8140003208DF8160018208DF817000D
:1018900005A93C48FFF70EF94FF48060ADF814003D
:1018A00004208DF8170005A93648FFF703F9252015
:1018B0008DF8000003208DF801008DF80200012052
:1018C0008DF803006846FEF702FF01940020ADF892
:1018D0000800ADF80A00ADF80C00ADF810000C20BF
:1018E000ADF80E0001A92648FFF7CDFD012240F218
:1018F00025512348FFF75FFE01212148FFF74FFEE6
:1019000006B010BD10B540F225511D48FFF738FF55
:1019100010B31B48FFF7B4FEC4B21B48008800F4A4
:101920000040C8B91848008800F4804060B10A2C13
:1019300003D000201449088020E01348008840F4B8
:1019400000401149088019E00D2C06D10E4800888E
:1019500040F480400C49088010E00B480088C0F338
:101960000D000A490C5408480088401C06490880AC
:1019700008460088C72801DD0020088010BD00004F
:10198000003801400008014090000020A40600201B
:1019900070B50546002405E0601CC4B2C82C01DD0A
:1019A000002070BD02214048FFF7F3FC0028F3D06F
:1019B00029463D48FFF79AFC002405E0601CC4B2AC
:1019C000C82C01DD0020ECE701213748FFF7E1FCDE
:1019D0000028F3D03448FFF78BFCC0B2E1E700B534
:1019E00087B001210420FFF721FB01210803FFF745
:1019F0002AFBE020ADF8180018208DF81B0003200A
:101A00008DF81A0006A92948FFF754F84FF46041F1
:101A10002648FFF7FCF80820ADF8180003208DF8E1
:101A20001A0010208DF81B0006A92048FFF742F885
:101A30000020ADF804004FF48270ADF806000020DD
:101A4000ADF808000220ADF80A000120ADF80C0046
:101A50004002ADF80E003820ADF810000020ADF8BF
:101A600012000720ADF8140001A90F48FFF768FB2A
:101A700001210D48FFF709FCFF20FFF789FF07B0A0
:101A800000BD10B50446084800884FF6C7710840ED
:101A90000549088008460088204308800121024843
:101AA000FFF7F3FB10BD00000030014000080140CB
:101AB00070B50C46C0F340018D1CF74E3570C5075C
:101AC000290E01F1600505EB041515447570C0F38E
:101AD00040010D1DF14E3570C507290E01F160055D
:101AE0001D44757070BD10B5FFF779FF00231A46CD
:101AF00001210220FFF7DCFF10BD70B505460E4640
:101B0000002404E0305DFFF743FF601CC4B2AC4228
:101B1000F8DB70BD01460A4600E0521E002AFCD1E7
:101B2000002000E0401C6428FCD3704710B5082159
:101B3000DB48FFF76EF80520FFF7ECFF0821D848D7
:101B4000FFF765F810BD30B503460C4610210022A2
:101B50000BE0A05C80EAE110C5B2D24830F8250065
:101B600080EA012081B2501CC2B29A42F1DB4FF6EA
:101B7000FF7000EA410030BD38B5C74800788DF8E5
:101B80000000C54840788DF80100C3490220FFF7E6
:101B9000DAFF044620128DF80200E0B28DF803004F
:101BA000FFF7C4FFFFF7C2FF0821BD48FFF731F878
:101BB00069460420FFF7A1FF0821B948FFF727F87D
:101BC00038BD38B5B54800788DF80000B348407886
:101BD0008DF80100B1490220FFF7B5FF044620123D
:101BE0008DF80200E0B28DF80300FFF79FFFFFF7CA
:101BF0009DFF0821AA48FFF70CF869460420FFF76B
:101C00007CFF0821A648FFF702F838BD2DE9F04116
:101C100005460E4617469846002404E0285DFFF767
:101C2000B7FE601CC4B2B442F8DB002405E000201B
:101C3000FFF7AEFE3855601CC4B24445F7DBBDE883
:101C4000F0812DE9F84304460E4617464FF0080888
:101C5000012C06D104208DF8010000208DF8000031
:101C600019E0022C06D106208DF8010000208DF825
:101C7000000010E0032C06D108208DF801000020A0
:101C80008DF8000007E0042C05D10A208DF8010032
:101C900000208DF8000069460220FFF754FF05463A
:101CA00028128DF80200E8B28DF80300FFF73EFF1E
:101CB000FFF73CFFFFF73AFFFFF738FFFFF736FF6C
:101CC00008217748FEF7A5FFF006030E3A460421E7
:101CD0006846FFF79BFF08217148FEF798FFBDE8B3
:101CE000F8832DE9F74FA2B0834608202190062003
:101CF000209003201F90002000900024BBF1000FD3
:101D000044D101273FE0002401AA38462399FFF778
:101D100098FF002532E0002617E001A8015D01AA26
:101D2000601C105C01EB00201FFA80F805EB4501F8
:101D3000249800EBC101781E00EB4000304421F8EC
:101D40001080A01CC4B2701CC6B2032EE5DB01A932
:101D5000601C085C095D00EB01201FFA80FA01A8F5
:101D600000EBC5010620FFF7EEFE8146CA4501D013
:101D7000FF200090A01CC4B2681CC5B22398854205
:101D8000C9DB781CC7B2052FBDDB3DE001AA584670
:101D90002399FFF756FF002533E0002618E001A83D
:101DA000015D01AA601C105C01EB00201FFA80F8A5
:101DB00005EB4501249800EBC101ABF1010000EBFC
:101DC0004000304421F81080A01CC4B2701CC6B280
:101DD000032EE4DB01A9601C085C095D00EB012017
:101DE0001FFA80FA01A800EBC5010620FFF7ABFE41
:101DF0008146CA4501D0FF200090A01CC4B2681CD7
:101E0000C5B223988542C8DB009825B0BDE8F08FA5
:101E10002DE9F84304460E4617464FF00808012CFA
:101E200006D10C208DF8010000208DF800000EE096
:101E3000022C06D10E208DF8010000208DF8000044
:101E400005E00C208DF8010000208DF800006946A7
:101E50000220FFF778FE054628128DF80200E8B24E
:101E60008DF80300FFF762FEFFF760FEFFF75EFEEE
:101E7000FFF75CFE08210A48FEF7CBFEF006030ED2
:101E80003A4604216846FFF7C1FE08210448FEF7E0
:101E9000BEFEBDE8F8830000920000209400002000
:101EA00000080140E82400082DE9F74FA2B083465E
:101EB000082021900620209003201F90002400205D
:101EC0000090BBF1000F45D1012740E0002401AA9A
:101ED00038462399FFF79CFF002533E0002617E0E2
:101EE00001A8015D01AA601C105C01EB00201FFA33
:101EF00080F905EB4501249800EB8101781E00EB89
:101F00004000304421F81090A01CC4B2701CC6B22E
:101F1000032EE5DB01A9601C085C095D00EB0120D4
:101F20001FFA80FA01A800EBC5010620FFF70BFE9F
:101F30008046C24502D04FF0FF300090A01CC4B2D2
:101F4000681CC5B223988542C8DB781CC7B2032F32
:101F5000BCDB3EE001AA58462399FFF759FF002554
:101F600034E0002618E001A8015D01AA601C105CA5
:101F700001EB00201FFA80F905EB4501249800EBE6
:101F80008101ABF1010000EB4000304421F81090DA
:101F9000A01CC4B2701CC6B2032EE4DB01A9601CF5
:101FA000085C095D00EB01201FFA80FA01A800EB34
:101FB000C5010620FFF7C7FD8046C24502D04FF09D
:101FC000FF300090A01CC4B2681CC5B223988542A3
:101FD000C7DB009825B0BDE8F08F38B507208DF835
:101FE000000011208DF8010069460220FFF7ABFDCB
:101FF000044620128DF80200E0B28DF80300FFF7CE
:1020000095FDFFF793FD0821FE48FEF702FE002331
:102010001A4604216846FFF7F9FD0821F948FEF742
:10202000F6FD38BD38B507208DF8000012208DF878
:10203000010069460220FFF786FD044620128DF854
:102040000200E0B28DF80300FFF770FDFFF76EFDB0
:102050000821EC48FEF7DDFD00231A4604216846FE
:10206000FFF7D4FD0821E748FEF7D1FD38BD2DE983
:10207000F04F9FB0074688464FF0060BF800001D52
:1020800000F0FF0A00208DF8000001208DF801000B
:102090003D208DF802006E208DF8030004243E469A
:1020A00028E04FF000090EE0701E00EB400008EB46
:1020B000400010F809000DF80400601CC4B209F1DA
:1020C000010000F0FF09B9F1060FEDDB701E00EB17
:1020D000400008EB40010620FFF735FD05462812B9
:1020E0000DF80400E9B2601C0DF80010A01CC4B289
:1020F000701EC6B2002ED4DCFFF718FDFFF716FDE8
:102100000821C048FEF785FD69465046FFF7F5FCFB
:102110000821BC48FEF77BFD1FB0BDE8F08F2DE91C
:10212000F04F87B007460D464FF0080B4FF0000AFE
:1021300000208DF8180002208DF819002B208DF852
:102140001A000A208DF81B00FFF7F0FCFFF7EEFCE9
:102150000821AC48FEF75DFDF806030E01AA042134
:1021600006A8FFF753FD0821A648FEF750FD0024FE
:1021700022E0002608E006EBC40001A9085C05EB9C
:10218000C4018855701CC6B2082EF4DB05EBC400F0
:10219000C07905EBC401897900EB01201FFA80F9B1
:1021A00005EBC4010620FFF7CEFC8046C14501D0F7
:1021B0004FF0FF3A601CC4B2BC42DADB504607B0B5
:1021C000BDE8F08F10B508218E48FEF722FD0520EE
:1021D000FFF7A0FC08218B48FEF719FD10BD38B5AC
:1021E00002208DF80000A7208DF80100694602202A
:1021F000FFF7A9FC044620128DF80200E0B28DF82A
:102200000300FFF793FCFFF791FC08217D48FEF7E0
:1022100000FD69460420FFF770FC08217948FEF7AD
:10222000F6FC38BD38B505208DF80000E8208DF8A3
:10223000010069460220FFF786FC044620128DF853
:102240000200E0B28DF80300FFF770FCFFF76EFCB0
:1022500008216C48FEF7DDFC69460420FFF74DFCC1
:1022600008216848FEF7D3FC38BD2DE9F843044641
:102270000E4617464FF00808012C06D110208DF8A5
:10228000010000208DF800000EE0022C06D1122083
:102290008DF8010000208DF8000005E010208DF879
:1022A000010000208DF8000069460220FFF74BFC7A
:1022B000054628128DF80200E8B28DF80300FFF7FA
:1022C00035FCFFF733FC08214E48FEF7A2FCF00670
:1022D000030E3A4604216846FFF798FC0821494856
:1022E000FEF795FCBDE8F8832DE9F74F8CB08346E7
:1022F00008200B9006200A9003200990002400205B
:102300000090BBF1000F45D1012740E0002401AA55
:1023100038460D99FFF7A9FF002533E0002617E0A6
:1023200001A8015D01AA601C105C01EB00201FFAEE
:1023300080F905EB45010E9800EB8101781E00EB5A
:102340004000304421F81090A01CC4B2701CC6B2EA
:10235000032EE5DB01A9601C085C095D00EB012090
:102360001FFA80FA01A800EBC5010620FFF7EBFB7E
:102370008046C24502D04FF0FF300090A01CC4B28E
:10238000681CC5B20D988542C8DB781CC7B2032F04
:10239000BCDB41E001AA58460D99FFF766FF002516
:1023A00037E0002618E001A8015D01AA601C105C5E
:1023B00001EB00201FFA80F905EB45010E9800EBB8
:1023C0008101ABF1010000EB4000304421F8109096
:1023D000A01CC4B2701CC6B2032EE4DB01A9601CB1
:1023E000085C095D00EB01201FFA80FA01A800EBF0
:1023F000C5010620FFF7A7FB8046C24505D04FF078
:10240000FF3001E0000801400090A01CC4B2681C2D
:10241000C5B20D988542C4DB00980FB0BDE8F08FBF
:1024200038B505208DF80000EF208DF801006946D1
:102430000220FFF788FB044620128DF80200E0B26C
:102440008DF80300FFF772FBFFF770FBFFF76EFBE1
:10245000FFF76CFBFFF76AFB08210648FEF7D9FB84
:1024600069460420FFF749FB08210248FEF7CFFB2D
:1024700038BD000000080140704770477047704742
:102480007047754600F02CF8AE4605006946534685
:1024900020F00700854618B020B5FFF7C3F9BDE866
:1024A00020404FF000064FF000074FF000084FF0BB
:1024B000000B21F00701AC46ACE8C009ACE8C0094C
:1024C000ACE8C009ACE8C0098D46704710B50446B9
:1024D000AFF300802046BDE81040FDF770BE00005D
:1024E000004870476C0700200000000099C50000FC
:1024F000ABCE0000320B0000CFD80000561D00000C
:1025000064160000FDD3000007F400009E310000B7
:10251000AC3A000035FF0000C82C000051E9000073
:1025200063E20000FA27000097AD00000E6800008B
:102530003C630000A5A6000058750000C1B0000073
:10254000F3BB00006A7E000090590000099C000067
:102550003B970000A25200005F810000C6440000CB
:10256000F44F00006D8A00002E5B0000B79E000053
:10257000859500001C500000E183000078460000B3
:102580004A4D0000D388000029AF0000B06A000067
:10259000826100001BA40000E67700007FB200000B
:1025A0004DB90000D47C0000B9F6000020330000D3
:1025B000123800008BFD0000762E0000EFEB0000CB
:1025C000DDE0000044250000BE02000027C7000037
:1025D00015CC00008C09000071DA0000E81F000033
:1025E000DA14000043D10000C5F300005C3600009F
:1025F0006E3D0000F7F800000A2B000093EE00008B
:10260000A1E5000038200000C20700005BC2000006
:1026100069C90000F00C00000DDF0000941A0000F2
:10262000A61100003FD40000525E0000CB9B0000CA
:10263000F9900000605500009D86000004430000F2
:1026400036480000AF8D000055AA0000CC6F000096
:10265000FE64000067A100009A72000003B700004A
:1026600031BC0000A8790000EBA80000726D0000EA
:1026700040660000D9A3000024700000BDB5000032
:102680008FBE0000167B0000EC5C00007599000016
:1026900047920000DE57000023840000BA4100008A
:1026A000884A0000118F00007C050000E5C0000092
:1026B000D7CB00004E0E0000B3DD00002A1800004A
:1026C0001813000081D600007BF10000E234000006
:1026D000D03F000049FA0000B42900002DEC0000B2
:1026E0001FE700008622000013A200008A67000096
:1026F000B86C000021A90000DC7A000045BF000092
:1027000077B40000EE710000145600008D930000B5
:10271000BF980000265D0000DB8E0000424B0000E9
:1027200070400000E9850000840F00001DCA000011
:102730002FC10000B60400004BD70000D2120000E9
:10274000E019000079DC000083FB00001A3E000065
:1027500028350000B1F000004C230000D5E6000051
:10276000E7ED00007E2800003DF90000A43C0000D9
:10277000963700000FF20000F22100006BE4000029
:1027800059EF0000C02A00003A0D0000A3C8000065
:1027900091C3000008060000F5D500006C10000091
:1027A0005E1B0000C7DE0000AA5400003391000049
:1027B000019A0000985F0000658C0000FC49000051
:1027C000CE42000057870000ADA000003465000035
:1027D000066E00009FAB000062780000FBBD0000A9
:1027E000C9B6000050730000D65100004F9400009D
:1027F0007D9F0000E45A000019890000804C000011
:10280000B24700002B820000D1A500004860000004
:102810007A6B0000E3AE00001E7D000087B8000068
:10282000B5B300002C76000041FC0000D839000050
:10283000EA32000073F700008E24000017E1000068
:1028400025EA0000BC2F000046080000DFCD000094
:10285000EDC600007403000089D0000010150000D0
:10286000221E0000BBDB0000F80A000061CF000060
:1028700053C40000CA01000037D20000AE170000A8
:102880009C1C000005D90000FFFE0000663B000014
:1028900054300000CDF5000030260000A9E3000010
:1028A0009BE80000022D00006FA70000F662000008
:1028B000C46900005DAC0000A07F000039BA0000D0
:1028C0000BB100009274000068530000F196000004
:1028D000C39D00005A580000A78B00003E4E000028
:1028E0000C45000095800000082900080000002029
:1028F000980000006C010008A02900089800002042
:10290000380D0000880100080F001C0000000000C6
:102910001C00000000001C00000000001C00000063
:1029200000001C00000000001C00000000001C0053
:10293000000000001C00000000001C00000000005F
:102940001C00000000001C00000000001C00000033
:1029500000001C00000000001C00000000001C0023
:1029600000000000000000000000000000A24A0477
:10297000000000000000000001020304060708092F
:102980000000000001020304010203040607080915
:102990000204060800000000000000000000000023
:0400000508000131BD
:00000001FF
